{
  "contractName": "Pecem",
  "abi": [
    {
      "inputs": [
        {
          "internalType": "string",
          "name": "mensagemInicial",
          "type": "string"
        },
        {
          "internalType": "string",
          "name": "nomeInicial",
          "type": "string"
        }
      ],
      "payable": false,
      "stateMutability": "nonpayable",
      "type": "constructor"
    },
    {
      "constant": true,
      "inputs": [],
      "name": "dono_contrato",
      "outputs": [
        {
          "internalType": "address",
          "name": "",
          "type": "address"
        }
      ],
      "payable": false,
      "stateMutability": "view",
      "type": "function"
    },
    {
      "constant": true,
      "inputs": [],
      "name": "mensagem",
      "outputs": [
        {
          "internalType": "string",
          "name": "",
          "type": "string"
        }
      ],
      "payable": false,
      "stateMutability": "view",
      "type": "function"
    },
    {
      "constant": true,
      "inputs": [],
      "name": "nome_propriedade",
      "outputs": [
        {
          "internalType": "string",
          "name": "",
          "type": "string"
        }
      ],
      "payable": false,
      "stateMutability": "view",
      "type": "function"
    },
    {
      "constant": true,
      "inputs": [
        {
          "internalType": "uint256",
          "name": "",
          "type": "uint256"
        }
      ],
      "name": "notas",
      "outputs": [
        {
          "internalType": "string",
          "name": "fornecedor",
          "type": "string"
        },
        {
          "internalType": "string",
          "name": "item",
          "type": "string"
        },
        {
          "internalType": "string",
          "name": "data",
          "type": "string"
        },
        {
          "internalType": "string",
          "name": "json_texto_nota",
          "type": "string"
        },
        {
          "internalType": "bool",
          "name": "ativo",
          "type": "bool"
        }
      ],
      "payable": false,
      "stateMutability": "view",
      "type": "function"
    },
    {
      "constant": true,
      "inputs": [
        {
          "internalType": "uint256",
          "name": "",
          "type": "uint256"
        }
      ],
      "name": "propostas",
      "outputs": [
        {
          "internalType": "string",
          "name": "comprador",
          "type": "string"
        },
        {
          "internalType": "string",
          "name": "vendedor",
          "type": "string"
        },
        {
          "internalType": "string",
          "name": "data",
          "type": "string"
        },
        {
          "internalType": "string",
          "name": "json_texto_proposta",
          "type": "string"
        },
        {
          "internalType": "string",
          "name": "estado",
          "type": "string"
        },
        {
          "internalType": "bool",
          "name": "ativo",
          "type": "bool"
        }
      ],
      "payable": false,
      "stateMutability": "view",
      "type": "function"
    },
    {
      "constant": true,
      "inputs": [
        {
          "internalType": "uint256",
          "name": "",
          "type": "uint256"
        }
      ],
      "name": "registros",
      "outputs": [
        {
          "internalType": "string",
          "name": "comprador",
          "type": "string"
        },
        {
          "internalType": "string",
          "name": "vendedor",
          "type": "string"
        },
        {
          "internalType": "string",
          "name": "data",
          "type": "string"
        },
        {
          "internalType": "string",
          "name": "json_texto_registo",
          "type": "string"
        },
        {
          "internalType": "bool",
          "name": "ativo",
          "type": "bool"
        }
      ],
      "payable": false,
      "stateMutability": "view",
      "type": "function"
    },
    {
      "constant": false,
      "inputs": [
        {
          "internalType": "string",
          "name": "novaMensagem",
          "type": "string"
        }
      ],
      "name": "atualizaMensagem",
      "outputs": [],
      "payable": false,
      "stateMutability": "nonpayable",
      "type": "function"
    },
    {
      "constant": false,
      "inputs": [
        {
          "internalType": "string",
          "name": "novoNome",
          "type": "string"
        }
      ],
      "name": "alteraNomePropriedade",
      "outputs": [],
      "payable": false,
      "stateMutability": "nonpayable",
      "type": "function"
    },
    {
      "constant": true,
      "inputs": [],
      "name": "getMensagem",
      "outputs": [
        {
          "internalType": "string",
          "name": "ret",
          "type": "string"
        }
      ],
      "payable": false,
      "stateMutability": "view",
      "type": "function"
    },
    {
      "constant": true,
      "inputs": [],
      "name": "getNomePropriedade",
      "outputs": [
        {
          "internalType": "string",
          "name": "ret",
          "type": "string"
        }
      ],
      "payable": false,
      "stateMutability": "view",
      "type": "function"
    },
    {
      "constant": false,
      "inputs": [
        {
          "internalType": "string",
          "name": "_fornecedor",
          "type": "string"
        },
        {
          "internalType": "string",
          "name": "_item",
          "type": "string"
        },
        {
          "internalType": "string",
          "name": "_data",
          "type": "string"
        },
        {
          "internalType": "string",
          "name": "_texto",
          "type": "string"
        }
      ],
      "name": "insereNota",
      "outputs": [
        {
          "internalType": "uint256",
          "name": "",
          "type": "uint256"
        }
      ],
      "payable": false,
      "stateMutability": "nonpayable",
      "type": "function"
    },
    {
      "constant": false,
      "inputs": [
        {
          "internalType": "string",
          "name": "_comprador",
          "type": "string"
        },
        {
          "internalType": "string",
          "name": "_vendedor",
          "type": "string"
        },
        {
          "internalType": "string",
          "name": "_data",
          "type": "string"
        },
        {
          "internalType": "string",
          "name": "_texto",
          "type": "string"
        }
      ],
      "name": "insereRegistro",
      "outputs": [
        {
          "internalType": "uint256",
          "name": "",
          "type": "uint256"
        }
      ],
      "payable": false,
      "stateMutability": "nonpayable",
      "type": "function"
    },
    {
      "constant": false,
      "inputs": [
        {
          "internalType": "string",
          "name": "_comprador",
          "type": "string"
        },
        {
          "internalType": "string",
          "name": "_vendedor",
          "type": "string"
        },
        {
          "internalType": "string",
          "name": "_data",
          "type": "string"
        },
        {
          "internalType": "string",
          "name": "_texto",
          "type": "string"
        }
      ],
      "name": "insereProposta",
      "outputs": [
        {
          "internalType": "uint256",
          "name": "",
          "type": "uint256"
        }
      ],
      "payable": false,
      "stateMutability": "nonpayable",
      "type": "function"
    },
    {
      "constant": false,
      "inputs": [
        {
          "internalType": "uint256",
          "name": "id_proposta",
          "type": "uint256"
        }
      ],
      "name": "rejeitarProposta",
      "outputs": [],
      "payable": false,
      "stateMutability": "nonpayable",
      "type": "function"
    },
    {
      "constant": false,
      "inputs": [
        {
          "internalType": "uint256",
          "name": "id_proposta",
          "type": "uint256"
        }
      ],
      "name": "aprovarProposta",
      "outputs": [],
      "payable": false,
      "stateMutability": "nonpayable",
      "type": "function"
    },
    {
      "constant": true,
      "inputs": [],
      "name": "getNotas",
      "outputs": [
        {
          "components": [
            {
              "internalType": "string",
              "name": "fornecedor",
              "type": "string"
            },
            {
              "internalType": "string",
              "name": "item",
              "type": "string"
            },
            {
              "internalType": "string",
              "name": "data",
              "type": "string"
            },
            {
              "internalType": "string",
              "name": "json_texto_nota",
              "type": "string"
            },
            {
              "internalType": "bool",
              "name": "ativo",
              "type": "bool"
            }
          ],
          "internalType": "struct Pecem.NotaFiscal[]",
          "name": "",
          "type": "tuple[]"
        }
      ],
      "payable": false,
      "stateMutability": "view",
      "type": "function"
    },
    {
      "constant": true,
      "inputs": [],
      "name": "getRegistros",
      "outputs": [
        {
          "components": [
            {
              "internalType": "string",
              "name": "comprador",
              "type": "string"
            },
            {
              "internalType": "string",
              "name": "vendedor",
              "type": "string"
            },
            {
              "internalType": "string",
              "name": "data",
              "type": "string"
            },
            {
              "internalType": "string",
              "name": "json_texto_registo",
              "type": "string"
            },
            {
              "internalType": "bool",
              "name": "ativo",
              "type": "bool"
            }
          ],
          "internalType": "struct Pecem.Registro[]",
          "name": "",
          "type": "tuple[]"
        }
      ],
      "payable": false,
      "stateMutability": "view",
      "type": "function"
    },
    {
      "constant": true,
      "inputs": [],
      "name": "getPropostas",
      "outputs": [
        {
          "components": [
            {
              "internalType": "string",
              "name": "comprador",
              "type": "string"
            },
            {
              "internalType": "string",
              "name": "vendedor",
              "type": "string"
            },
            {
              "internalType": "string",
              "name": "data",
              "type": "string"
            },
            {
              "internalType": "string",
              "name": "json_texto_proposta",
              "type": "string"
            },
            {
              "internalType": "string",
              "name": "estado",
              "type": "string"
            },
            {
              "internalType": "bool",
              "name": "ativo",
              "type": "bool"
            }
          ],
          "internalType": "struct Pecem.Proposta[]",
          "name": "",
          "type": "tuple[]"
        }
      ],
      "payable": false,
      "stateMutability": "view",
      "type": "function"
    }
  ],
  "bytecode": "0x60806040523480156200001157600080fd5b5060405162002ad638038062002ad68339818101604052620000379190810190620001bd565b81600190805190602001906200004f929190620000b2565b50806000908051906020019062000068929190620000b2565b5033600260006101000a81548173ffffffffffffffffffffffffffffffffffffffff021916908373ffffffffffffffffffffffffffffffffffffffff1602179055505050620002c1565b828054600181600116156101000203166002900490600052602060002090601f016020900481019282601f10620000f557805160ff191683800117855562000126565b8280016001018555821562000126579182015b828111156200012557825182559160200191906001019062000108565b5b50905062000135919062000139565b5090565b6200015e91905b808211156200015a57600081600090555060010162000140565b5090565b90565b600082601f8301126200017357600080fd5b81516200018a62000184826200025e565b62000230565b91508082526020830160208301858383011115620001a757600080fd5b620001b48382846200028b565b50505092915050565b60008060408385031215620001d157600080fd5b600083015167ffffffffffffffff811115620001ec57600080fd5b620001fa8582860162000161565b925050602083015167ffffffffffffffff8111156200021857600080fd5b620002268582860162000161565b9150509250929050565b6000604051905081810181811067ffffffffffffffff821117156200025457600080fd5b8060405250919050565b600067ffffffffffffffff8211156200027657600080fd5b601f19601f8301169050602081019050919050565b60005b83811015620002ab5780820151818401526020810190506200028e565b83811115620002bb576000848401525b50505050565b61280580620002d16000396000f3fe608060405234801561001057600080fd5b50600436106101165760003560e01c80637cd9cd0e116100a2578063931852cd11610071578063931852cd146102fe578063a28fe68c1461031a578063b1970ce614610338578063ded39a5d14610356578063f60dac9c1461038a57610116565b80637cd9cd0e1461028a5780637fcc00b8146102a8578063805f4ea6146102c457806386e11495146102e057610116565b80631c2b06a1116100e95780631c2b06a1146101bb57806322af738b146101d757806347748cc0146102075780636f4777be146102255780637306953f1461025a57610116565b8063066d8b121461011b578063160c506314610139578063162f17a9146101575780631b06fd011461018b575b600080fd5b6101236103a8565b6040516101309190612482565b60405180910390f35b610141610446565b60405161014e9190612482565b60405180910390f35b610171600480360361016c9190810190611f9b565b6104e4565b6040516101829594939291906124c6565b60405180910390f35b6101a560048036036101a09190810190611ed8565b610794565b6040516101b291906125b9565b60405180910390f35b6101d560048036036101d09190810190611e97565b610895565b005b6101f160048036036101ec9190810190611ed8565b6108af565b6040516101fe91906125b9565b60405180910390f35b61020f610a08565b60405161021c919061241c565b60405180910390f35b61023f600480360361023a9190810190611f9b565b610d0a565b60405161025196959493929190612535565b60405180910390f35b610274600480360361026f9190810190611ed8565b611058565b60405161028191906125b9565b60405180910390f35b610292611159565b60405161029f919061243e565b60405180910390f35b6102c260048036036102bd9190810190611e97565b6114fd565b005b6102de60048036036102d99190810190611f9b565b611517565b005b6102e8611582565b6040516102f591906124a4565b60405180910390f35b61031860048036036103139190810190611f9b565b611624565b005b61032261168f565b60405161032f9190612460565b60405180910390f35b610340611991565b60405161034d91906124a4565b60405180910390f35b610370600480360361036b9190810190611f9b565b611a33565b6040516103819594939291906124c6565b60405180910390f35b610392611ce3565b60405161039f9190612401565b60405180910390f35b60008054600181600116156101000203166002900480601f01602080910402602001604051908101604052809291908181526020018280546001816001161561010002031660029004801561043e5780601f106104135761010080835404028352916020019161043e565b820191906000526020600020905b81548152906001019060200180831161042157829003601f168201915b505050505081565b60018054600181600116156101000203166002900480601f0160208091040260200160405190810160405280929190818152602001828054600181600116156101000203166002900480156104dc5780601f106104b1576101008083540402835291602001916104dc565b820191906000526020600020905b8154815290600101906020018083116104bf57829003601f168201915b505050505081565b600481815481106104f157fe5b9060005260206000209060050201600091509050806000018054600181600116156101000203166002900480601f01602080910402602001604051908101604052809291908181526020018280546001816001161561010002031660029004801561059d5780601f106105725761010080835404028352916020019161059d565b820191906000526020600020905b81548152906001019060200180831161058057829003601f168201915b505050505090806001018054600181600116156101000203166002900480601f01602080910402602001604051908101604052809291908181526020018280546001816001161561010002031660029004801561063b5780601f106106105761010080835404028352916020019161063b565b820191906000526020600020905b81548152906001019060200180831161061e57829003601f168201915b505050505090806002018054600181600116156101000203166002900480601f0160208091040260200160405190810160405280929190818152602001828054600181600116156101000203166002900480156106d95780601f106106ae576101008083540402835291602001916106d9565b820191906000526020600020905b8154815290600101906020018083116106bc57829003601f168201915b505050505090806003018054600181600116156101000203166002900480601f0160208091040260200160405190810160405280929190818152602001828054600181600116156101000203166002900480156107775780601f1061074c57610100808354040283529160200191610777565b820191906000526020600020905b81548152906001019060200180831161075a57829003601f168201915b5050505050908060040160009054906101000a900460ff16905085565b600080600160046040518060a001604052808981526020018881526020018781526020018681526020016001151581525090806001815401808255809150509060018203906000526020600020906005020160009091929091909150600082015181600001908051906020019061080c929190611d09565b506020820151816001019080519060200190610829929190611d09565b506040820151816002019080519060200190610846929190611d09565b506060820151816003019080519060200190610863929190611d09565b5060808201518160040160006101000a81548160ff021916908315150217905550505003905080915050949350505050565b80600190805190602001906108ab929190611d89565b5050565b600080600160056040518060c001604052808981526020018881526020018781526020018681526020016040518060400160405280600181526020017f5000000000000000000000000000000000000000000000000000000000000000815250815260200160011515815250908060018154018082558091505090600182039060005260206000209060060201600090919290919091506000820151816000019080519060200190610962929190611d09565b50602082015181600101908051906020019061097f929190611d09565b50604082015181600201908051906020019061099c929190611d09565b5060608201518160030190805190602001906109b9929190611d09565b5060808201518160040190805190602001906109d6929190611d09565b5060a08201518160050160006101000a81548160ff021916908315150217905550505003905080915050949350505050565b60606004805480602002602001604051908101604052809291908181526020016000905b82821015610d0157838290600052602060002090600502016040518060a0016040529081600082018054600181600116156101000203166002900480601f016020809104026020016040519081016040528092919081815260200182805460018160011615610100020316600290048015610ae85780601f10610abd57610100808354040283529160200191610ae8565b820191906000526020600020905b815481529060010190602001808311610acb57829003601f168201915b50505050508152602001600182018054600181600116156101000203166002900480601f016020809104026020016040519081016040528092919081815260200182805460018160011615610100020316600290048015610b8a5780601f10610b5f57610100808354040283529160200191610b8a565b820191906000526020600020905b815481529060010190602001808311610b6d57829003601f168201915b50505050508152602001600282018054600181600116156101000203166002900480601f016020809104026020016040519081016040528092919081815260200182805460018160011615610100020316600290048015610c2c5780601f10610c0157610100808354040283529160200191610c2c565b820191906000526020600020905b815481529060010190602001808311610c0f57829003601f168201915b50505050508152602001600382018054600181600116156101000203166002900480601f016020809104026020016040519081016040528092919081815260200182805460018160011615610100020316600290048015610cce5780601f10610ca357610100808354040283529160200191610cce565b820191906000526020600020905b815481529060010190602001808311610cb157829003601f168201915b505050505081526020016004820160009054906101000a900460ff16151515158152505081526020019060010190610a2c565b50505050905090565b60058181548110610d1757fe5b9060005260206000209060060201600091509050806000018054600181600116156101000203166002900480601f016020809104026020016040519081016040528092919081815260200182805460018160011615610100020316600290048015610dc35780601f10610d9857610100808354040283529160200191610dc3565b820191906000526020600020905b815481529060010190602001808311610da657829003601f168201915b505050505090806001018054600181600116156101000203166002900480601f016020809104026020016040519081016040528092919081815260200182805460018160011615610100020316600290048015610e615780601f10610e3657610100808354040283529160200191610e61565b820191906000526020600020905b815481529060010190602001808311610e4457829003601f168201915b505050505090806002018054600181600116156101000203166002900480601f016020809104026020016040519081016040528092919081815260200182805460018160011615610100020316600290048015610eff5780601f10610ed457610100808354040283529160200191610eff565b820191906000526020600020905b815481529060010190602001808311610ee257829003601f168201915b505050505090806003018054600181600116156101000203166002900480601f016020809104026020016040519081016040528092919081815260200182805460018160011615610100020316600290048015610f9d5780601f10610f7257610100808354040283529160200191610f9d565b820191906000526020600020905b815481529060010190602001808311610f8057829003601f168201915b505050505090806004018054600181600116156101000203166002900480601f01602080910402602001604051908101604052809291908181526020018280546001816001161561010002031660029004801561103b5780601f106110105761010080835404028352916020019161103b565b820191906000526020600020905b81548152906001019060200180831161101e57829003601f168201915b5050505050908060050160009054906101000a900460ff16905086565b600080600160036040518060a00160405280898152602001888152602001878152602001868152602001600115158152509080600181540180825580915050906001820390600052602060002090600502016000909192909190915060008201518160000190805190602001906110d0929190611d09565b5060208201518160010190805190602001906110ed929190611d09565b50604082015181600201908051906020019061110a929190611d09565b506060820151816003019080519060200190611127929190611d09565b5060808201518160040160006101000a81548160ff021916908315150217905550505003905080915050949350505050565b60606005805480602002602001604051908101604052809291908181526020016000905b828210156114f457838290600052602060002090600602016040518060c0016040529081600082018054600181600116156101000203166002900480601f0160208091040260200160405190810160405280929190818152602001828054600181600116156101000203166002900480156112395780601f1061120e57610100808354040283529160200191611239565b820191906000526020600020905b81548152906001019060200180831161121c57829003601f168201915b50505050508152602001600182018054600181600116156101000203166002900480601f0160208091040260200160405190810160405280929190818152602001828054600181600116156101000203166002900480156112db5780601f106112b0576101008083540402835291602001916112db565b820191906000526020600020905b8154815290600101906020018083116112be57829003601f168201915b50505050508152602001600282018054600181600116156101000203166002900480601f01602080910402602001604051908101604052809291908181526020018280546001816001161561010002031660029004801561137d5780601f106113525761010080835404028352916020019161137d565b820191906000526020600020905b81548152906001019060200180831161136057829003601f168201915b50505050508152602001600382018054600181600116156101000203166002900480601f01602080910402602001604051908101604052809291908181526020018280546001816001161561010002031660029004801561141f5780601f106113f45761010080835404028352916020019161141f565b820191906000526020600020905b81548152906001019060200180831161140257829003601f168201915b50505050508152602001600482018054600181600116156101000203166002900480601f0160208091040260200160405190810160405280929190818152602001828054600181600116156101000203166002900480156114c15780601f10611496576101008083540402835291602001916114c1565b820191906000526020600020905b8154815290600101906020018083116114a457829003601f168201915b505050505081526020016005820160009054906101000a900460ff1615151515815250508152602001906001019061117d565b50505050905090565b8060009080519060200190611513929190611d89565b5050565b6040518060400160405280600181526020017f52000000000000000000000000000000000000000000000000000000000000008152506005828154811061155a57fe5b9060005260206000209060060201600401908051906020019061157e929190611d89565b5050565b606060018054600181600116156101000203166002900480601f01602080910402602001604051908101604052809291908181526020018280546001816001161561010002031660029004801561161a5780601f106115ef5761010080835404028352916020019161161a565b820191906000526020600020905b8154815290600101906020018083116115fd57829003601f168201915b5050505050905090565b6040518060400160405280600181526020017f41000000000000000000000000000000000000000000000000000000000000008152506005828154811061166757fe5b9060005260206000209060060201600401908051906020019061168b929190611d89565b5050565b60606003805480602002602001604051908101604052809291908181526020016000905b8282101561198857838290600052602060002090600502016040518060a0016040529081600082018054600181600116156101000203166002900480601f01602080910402602001604051908101604052809291908181526020018280546001816001161561010002031660029004801561176f5780601f106117445761010080835404028352916020019161176f565b820191906000526020600020905b81548152906001019060200180831161175257829003601f168201915b50505050508152602001600182018054600181600116156101000203166002900480601f0160208091040260200160405190810160405280929190818152602001828054600181600116156101000203166002900480156118115780601f106117e657610100808354040283529160200191611811565b820191906000526020600020905b8154815290600101906020018083116117f457829003601f168201915b50505050508152602001600282018054600181600116156101000203166002900480601f0160208091040260200160405190810160405280929190818152602001828054600181600116156101000203166002900480156118b35780601f10611888576101008083540402835291602001916118b3565b820191906000526020600020905b81548152906001019060200180831161189657829003601f168201915b50505050508152602001600382018054600181600116156101000203166002900480601f0160208091040260200160405190810160405280929190818152602001828054600181600116156101000203166002900480156119555780601f1061192a57610100808354040283529160200191611955565b820191906000526020600020905b81548152906001019060200180831161193857829003601f168201915b505050505081526020016004820160009054906101000a900460ff161515151581525050815260200190600101906116b3565b50505050905090565b606060008054600181600116156101000203166002900480601f016020809104026020016040519081016040528092919081815260200182805460018160011615610100020316600290048015611a295780601f106119fe57610100808354040283529160200191611a29565b820191906000526020600020905b815481529060010190602001808311611a0c57829003601f168201915b5050505050905090565b60038181548110611a4057fe5b9060005260206000209060050201600091509050806000018054600181600116156101000203166002900480601f016020809104026020016040519081016040528092919081815260200182805460018160011615610100020316600290048015611aec5780601f10611ac157610100808354040283529160200191611aec565b820191906000526020600020905b815481529060010190602001808311611acf57829003601f168201915b505050505090806001018054600181600116156101000203166002900480601f016020809104026020016040519081016040528092919081815260200182805460018160011615610100020316600290048015611b8a5780601f10611b5f57610100808354040283529160200191611b8a565b820191906000526020600020905b815481529060010190602001808311611b6d57829003601f168201915b505050505090806002018054600181600116156101000203166002900480601f016020809104026020016040519081016040528092919081815260200182805460018160011615610100020316600290048015611c285780601f10611bfd57610100808354040283529160200191611c28565b820191906000526020600020905b815481529060010190602001808311611c0b57829003601f168201915b505050505090806003018054600181600116156101000203166002900480601f016020809104026020016040519081016040528092919081815260200182805460018160011615610100020316600290048015611cc65780601f10611c9b57610100808354040283529160200191611cc6565b820191906000526020600020905b815481529060010190602001808311611ca957829003601f168201915b5050505050908060040160009054906101000a900460ff16905085565b600260009054906101000a900473ffffffffffffffffffffffffffffffffffffffff1681565b828054600181600116156101000203166002900490600052602060002090601f016020900481019282601f10611d4a57805160ff1916838001178555611d78565b82800160010185558215611d78579182015b82811115611d77578251825591602001919060010190611d5c565b5b509050611d859190611e09565b5090565b828054600181600116156101000203166002900490600052602060002090601f016020900481019282601f10611dca57805160ff1916838001178555611df8565b82800160010185558215611df8579182015b82811115611df7578251825591602001919060010190611ddc565b5b509050611e059190611e09565b5090565b611e2b91905b80821115611e27576000816000905550600101611e0f565b5090565b90565b600082601f830112611e3f57600080fd5b8135611e52611e4d82612601565b6125d4565b91508082526020830160208301858383011115611e6e57600080fd5b611e79838284612758565b50505092915050565b600081359050611e91816127ab565b92915050565b600060208284031215611ea957600080fd5b600082013567ffffffffffffffff811115611ec357600080fd5b611ecf84828501611e2e565b91505092915050565b60008060008060808587031215611eee57600080fd5b600085013567ffffffffffffffff811115611f0857600080fd5b611f1487828801611e2e565b945050602085013567ffffffffffffffff811115611f3157600080fd5b611f3d87828801611e2e565b935050604085013567ffffffffffffffff811115611f5a57600080fd5b611f6687828801611e2e565b925050606085013567ffffffffffffffff811115611f8357600080fd5b611f8f87828801611e2e565b91505092959194509250565b600060208284031215611fad57600080fd5b6000611fbb84828501611e82565b91505092915050565b6000611fd08383612237565b905092915050565b6000611fe483836122c2565b905092915050565b6000611ff88383612367565b905092915050565b61200981612710565b82525050565b600061201a8261265d565b61202481856126bb565b9350836020820285016120368561262d565b8060005b8581101561207257848403895281516120538582611fc4565b945061205e83612694565b925060208a0199505060018101905061203a565b50829750879550505050505092915050565b600061208f82612668565b61209981856126cc565b9350836020820285016120ab8561263d565b8060005b858110156120e757848403895281516120c88582611fd8565b94506120d3836126a1565b925060208a019950506001810190506120af565b50829750879550505050505092915050565b600061210482612673565b61210e81856126dd565b9350836020820285016121208561264d565b8060005b8581101561215c578484038952815161213d8582611fec565b9450612148836126ae565b925060208a01995050600181019050612124565b50829750879550505050505092915050565b61217781612722565b82525050565b61218681612722565b82525050565b600061219782612689565b6121a181856126ff565b93506121b1818560208601612767565b6121ba8161279a565b840191505092915050565b60006121d08261267e565b6121da81856126ee565b93506121ea818560208601612767565b6121f38161279a565b840191505092915050565b60006122098261267e565b61221381856126ff565b9350612223818560208601612767565b61222c8161279a565b840191505092915050565b600060a083016000830151848203600086015261225482826121c5565b9150506020830151848203602086015261226e82826121c5565b9150506040830151848203604086015261228882826121c5565b915050606083015184820360608601526122a282826121c5565b91505060808301516122b7608086018261216e565b508091505092915050565b600060c08301600083015184820360008601526122df82826121c5565b915050602083015184820360208601526122f982826121c5565b9150506040830151848203604086015261231382826121c5565b9150506060830151848203606086015261232d82826121c5565b9150506080830151848203608086015261234782826121c5565b91505060a083015161235c60a086018261216e565b508091505092915050565b600060a083016000830151848203600086015261238482826121c5565b9150506020830151848203602086015261239e82826121c5565b915050604083015184820360408601526123b882826121c5565b915050606083015184820360608601526123d282826121c5565b91505060808301516123e7608086018261216e565b508091505092915050565b6123fb8161274e565b82525050565b60006020820190506124166000830184612000565b92915050565b60006020820190508181036000830152612436818461200f565b905092915050565b600060208201905081810360008301526124588184612084565b905092915050565b6000602082019050818103600083015261247a81846120f9565b905092915050565b6000602082019050818103600083015261249c81846121fe565b905092915050565b600060208201905081810360008301526124be818461218c565b905092915050565b600060a08201905081810360008301526124e081886121fe565b905081810360208301526124f481876121fe565b9050818103604083015261250881866121fe565b9050818103606083015261251c81856121fe565b905061252b608083018461217d565b9695505050505050565b600060c082019050818103600083015261254f81896121fe565b9050818103602083015261256381886121fe565b9050818103604083015261257781876121fe565b9050818103606083015261258b81866121fe565b9050818103608083015261259f81856121fe565b90506125ae60a083018461217d565b979650505050505050565b60006020820190506125ce60008301846123f2565b92915050565b6000604051905081810181811067ffffffffffffffff821117156125f757600080fd5b8060405250919050565b600067ffffffffffffffff82111561261857600080fd5b601f19601f8301169050602081019050919050565b6000819050602082019050919050565b6000819050602082019050919050565b6000819050602082019050919050565b600081519050919050565b600081519050919050565b600081519050919050565b600081519050919050565b600081519050919050565b6000602082019050919050565b6000602082019050919050565b6000602082019050919050565b600082825260208201905092915050565b600082825260208201905092915050565b600082825260208201905092915050565b600082825260208201905092915050565b600082825260208201905092915050565b600061271b8261272e565b9050919050565b60008115159050919050565b600073ffffffffffffffffffffffffffffffffffffffff82169050919050565b6000819050919050565b82818337600083830152505050565b60005b8381101561278557808201518184015260208101905061276a565b83811115612794576000848401525b50505050565b6000601f19601f8301169050919050565b6127b48161274e565b81146127bf57600080fd5b5056fea365627a7a723158200371b94ad00d1903afb1bb1fdd34dee8a2cdb8eb25807d40aba73c0ed217bd996c6578706572696d656e74616cf564736f6c63430005100040",
  "source": "pragma solidity >=0.4.22 <0.7.0;\r\npragma experimental ABIEncoderV2;\r\n\r\ncontract Pecem {\r\n    string public nome_propriedade;\r\n    string public mensagem;\r\n    address public dono_contrato;\r\n\r\n    struct Registro {\r\n        string comprador;\r\n        string vendedor;\r\n        string data;\r\n        string json_texto_registo;\r\n        bool ativo;\r\n    }\r\n\r\n    struct NotaFiscal {\r\n        string fornecedor;\r\n        string item;\r\n        string data;\r\n        string json_texto_nota;\r\n        bool ativo;\r\n    }\r\n\r\n    struct Proposta {\r\n        string comprador;\r\n        string vendedor;\r\n        string data;\r\n        string json_texto_proposta;\r\n        string estado;\r\n        bool ativo;\r\n    }\r\n\r\n    Registro[] public registros;\r\n    NotaFiscal[] public notas;\r\n    Proposta[] public propostas;\r\n\r\n    constructor(string memory mensagemInicial, string memory nomeInicial) public {\r\n        mensagem = mensagemInicial;\r\n        nome_propriedade = nomeInicial;\r\n        dono_contrato = msg.sender;\r\n    }\r\n\r\n    function atualizaMensagem(string memory novaMensagem) public {\r\n        mensagem = novaMensagem;\r\n    }\r\n\r\n    function alteraNomePropriedade(string memory novoNome) public {\r\n        nome_propriedade = novoNome;\r\n    }\r\n\r\n    function getMensagem() public view returns(string memory ret) {\r\n        //const bytes32 varConv = mensagem;\r\n        return mensagem;\r\n    }\r\n\r\n    function getNomePropriedade() public view returns(string memory ret) {\r\n        //const bytes32 varConv = nome_propriedade;\r\n        return nome_propriedade;\r\n    }\r\n\r\n    function insereNota(string memory _fornecedor, string memory _item, string memory _data, string memory _texto) public returns (uint){\r\n        uint id_ret = notas.push(NotaFiscal(_fornecedor, _item,_data,_texto, true)) - 1;\r\n        return id_ret;\r\n    }\r\n\r\n    function insereRegistro(string memory _comprador, string memory _vendedor, string memory _data, string memory _texto) public returns (uint){\r\n        uint id_ret = registros.push(Registro(_comprador, _vendedor, _data, _texto, true)) - 1;\r\n        return id_ret;\r\n    }\r\n\r\n    function insereProposta(string memory _comprador, string memory _vendedor, string memory _data, string memory _texto) public returns (uint){\r\n        uint id_ret = propostas.push(Proposta(_comprador, _vendedor, _data, _texto, 'P', true)) - 1;\r\n        return id_ret;\r\n    }\r\n\r\n    function rejeitarProposta(uint id_proposta) public{\r\n        propostas[id_proposta].estado = 'R';\r\n    }\r\n\r\n    function aprovarProposta(uint id_proposta) public{\r\n        propostas[id_proposta].estado = 'A';\r\n        //inativar propostas no aprovadas e rejeitar... \r\n    }\r\n\r\n    function _inativarProposta(uint id_proposta) private{\r\n        propostas[id_proposta].ativo = false;\r\n    }\r\n\r\n    function _inativarNota(uint id_nota) private{\r\n        notas[id_nota].ativo = false;\r\n    }\r\n    \r\n    function getNotas() view public returns(NotaFiscal[] memory) {\r\n        return notas;\r\n    }\r\n    \r\n    function getRegistros() view public returns(Registro[] memory) {\r\n        return registros;\r\n    }\r\n    \r\n    function getPropostas() view public returns(Proposta[] memory) {\r\n        return propostas;\r\n    }\r\n}",
  "sourcePath": "C:/Bitcoin_Ethereum/RSK/poc_rsk/rsk_blockchain_poc/contracts/Pecem.sol",
  "compiler": {
    "name": "solc",
    "version": "0.5.16+commit.9c3226ce.Emscripten.clang"
  },
  "schemaVersion": "3.2.3",
  "updatedAt": "2020-10-24T11:25:43.193Z",
  "devdoc": {
    "methods": {}
  },
  "userdoc": {
    "methods": {}
  }
}