{
  "contractName": "Pecem",
  "abi": [
    {
      "inputs": [
        {
          "internalType": "string",
          "name": "mensagemInicial",
          "type": "string"
        },
        {
          "internalType": "string",
          "name": "nomeInicial",
          "type": "string"
        }
      ],
      "payable": false,
      "stateMutability": "nonpayable",
      "type": "constructor"
    },
    {
      "constant": true,
      "inputs": [],
      "name": "contrato",
      "outputs": [
        {
          "internalType": "string",
          "name": "",
          "type": "string"
        }
      ],
      "payable": false,
      "stateMutability": "view",
      "type": "function"
    },
    {
      "constant": true,
      "inputs": [],
      "name": "dono_contrato",
      "outputs": [
        {
          "internalType": "address",
          "name": "",
          "type": "address"
        }
      ],
      "payable": false,
      "stateMutability": "view",
      "type": "function"
    },
    {
      "constant": true,
      "inputs": [],
      "name": "mensagem",
      "outputs": [
        {
          "internalType": "string",
          "name": "",
          "type": "string"
        }
      ],
      "payable": false,
      "stateMutability": "view",
      "type": "function"
    },
    {
      "constant": true,
      "inputs": [],
      "name": "nome_propriedade",
      "outputs": [
        {
          "internalType": "string",
          "name": "",
          "type": "string"
        }
      ],
      "payable": false,
      "stateMutability": "view",
      "type": "function"
    },
    {
      "constant": true,
      "inputs": [
        {
          "internalType": "uint256",
          "name": "",
          "type": "uint256"
        }
      ],
      "name": "notas",
      "outputs": [
        {
          "internalType": "string",
          "name": "fornecedor",
          "type": "string"
        },
        {
          "internalType": "string",
          "name": "item",
          "type": "string"
        },
        {
          "internalType": "string",
          "name": "data",
          "type": "string"
        },
        {
          "internalType": "string",
          "name": "json_texto_nota",
          "type": "string"
        },
        {
          "internalType": "bool",
          "name": "ativo",
          "type": "bool"
        }
      ],
      "payable": false,
      "stateMutability": "view",
      "type": "function"
    },
    {
      "constant": true,
      "inputs": [],
      "name": "proposta",
      "outputs": [
        {
          "internalType": "string",
          "name": "",
          "type": "string"
        }
      ],
      "payable": false,
      "stateMutability": "view",
      "type": "function"
    },
    {
      "constant": true,
      "inputs": [
        {
          "internalType": "uint256",
          "name": "",
          "type": "uint256"
        }
      ],
      "name": "propostas",
      "outputs": [
        {
          "internalType": "string",
          "name": "comprador",
          "type": "string"
        },
        {
          "internalType": "string",
          "name": "vendedor",
          "type": "string"
        },
        {
          "internalType": "string",
          "name": "data",
          "type": "string"
        },
        {
          "internalType": "string",
          "name": "json_texto_proposta",
          "type": "string"
        },
        {
          "internalType": "string",
          "name": "estado",
          "type": "string"
        },
        {
          "internalType": "bool",
          "name": "ativo",
          "type": "bool"
        }
      ],
      "payable": false,
      "stateMutability": "view",
      "type": "function"
    },
    {
      "constant": true,
      "inputs": [
        {
          "internalType": "uint256",
          "name": "",
          "type": "uint256"
        }
      ],
      "name": "registros",
      "outputs": [
        {
          "internalType": "string",
          "name": "comprador",
          "type": "string"
        },
        {
          "internalType": "string",
          "name": "vendedor",
          "type": "string"
        },
        {
          "internalType": "string",
          "name": "data",
          "type": "string"
        },
        {
          "internalType": "string",
          "name": "json_texto_registo",
          "type": "string"
        },
        {
          "internalType": "bool",
          "name": "ativo",
          "type": "bool"
        }
      ],
      "payable": false,
      "stateMutability": "view",
      "type": "function"
    },
    {
      "constant": true,
      "inputs": [],
      "name": "teste",
      "outputs": [
        {
          "internalType": "uint256",
          "name": "",
          "type": "uint256"
        }
      ],
      "payable": false,
      "stateMutability": "view",
      "type": "function"
    },
    {
      "constant": false,
      "inputs": [
        {
          "internalType": "string",
          "name": "novaMensagem",
          "type": "string"
        }
      ],
      "name": "atualizaMensagem",
      "outputs": [],
      "payable": false,
      "stateMutability": "nonpayable",
      "type": "function"
    },
    {
      "constant": false,
      "inputs": [
        {
          "internalType": "string",
          "name": "novoNome",
          "type": "string"
        }
      ],
      "name": "alteraNomePropriedade",
      "outputs": [],
      "payable": false,
      "stateMutability": "nonpayable",
      "type": "function"
    },
    {
      "constant": true,
      "inputs": [],
      "name": "getMensagem",
      "outputs": [
        {
          "internalType": "string",
          "name": "ret",
          "type": "string"
        }
      ],
      "payable": false,
      "stateMutability": "view",
      "type": "function"
    },
    {
      "constant": true,
      "inputs": [],
      "name": "getNomePropriedade",
      "outputs": [
        {
          "internalType": "string",
          "name": "ret",
          "type": "string"
        }
      ],
      "payable": false,
      "stateMutability": "view",
      "type": "function"
    },
    {
      "constant": true,
      "inputs": [],
      "name": "getTeste",
      "outputs": [
        {
          "internalType": "uint256",
          "name": "",
          "type": "uint256"
        }
      ],
      "payable": false,
      "stateMutability": "view",
      "type": "function"
    },
    {
      "constant": false,
      "inputs": [
        {
          "internalType": "uint256",
          "name": "valor",
          "type": "uint256"
        }
      ],
      "name": "setTest",
      "outputs": [],
      "payable": false,
      "stateMutability": "nonpayable",
      "type": "function"
    },
    {
      "constant": true,
      "inputs": [],
      "name": "retornoFixo",
      "outputs": [
        {
          "internalType": "string",
          "name": "status",
          "type": "string"
        }
      ],
      "payable": false,
      "stateMutability": "pure",
      "type": "function"
    },
    {
      "constant": false,
      "inputs": [
        {
          "internalType": "string",
          "name": "_fornecedor",
          "type": "string"
        },
        {
          "internalType": "string",
          "name": "_item",
          "type": "string"
        },
        {
          "internalType": "string",
          "name": "_data",
          "type": "string"
        },
        {
          "internalType": "string",
          "name": "_texto",
          "type": "string"
        }
      ],
      "name": "insereNota",
      "outputs": [
        {
          "internalType": "uint256",
          "name": "",
          "type": "uint256"
        }
      ],
      "payable": false,
      "stateMutability": "nonpayable",
      "type": "function"
    },
    {
      "constant": false,
      "inputs": [
        {
          "internalType": "string",
          "name": "_comprador",
          "type": "string"
        },
        {
          "internalType": "string",
          "name": "_vendedor",
          "type": "string"
        },
        {
          "internalType": "string",
          "name": "_data",
          "type": "string"
        },
        {
          "internalType": "string",
          "name": "_texto",
          "type": "string"
        }
      ],
      "name": "insereRegistro",
      "outputs": [
        {
          "internalType": "uint256",
          "name": "",
          "type": "uint256"
        }
      ],
      "payable": false,
      "stateMutability": "nonpayable",
      "type": "function"
    },
    {
      "constant": false,
      "inputs": [
        {
          "internalType": "string",
          "name": "_comprador",
          "type": "string"
        },
        {
          "internalType": "string",
          "name": "_vendedor",
          "type": "string"
        },
        {
          "internalType": "string",
          "name": "_data",
          "type": "string"
        },
        {
          "internalType": "string",
          "name": "_texto",
          "type": "string"
        }
      ],
      "name": "insereProposta",
      "outputs": [
        {
          "internalType": "uint256",
          "name": "",
          "type": "uint256"
        }
      ],
      "payable": false,
      "stateMutability": "nonpayable",
      "type": "function"
    },
    {
      "constant": false,
      "inputs": [
        {
          "internalType": "uint256",
          "name": "id_proposta",
          "type": "uint256"
        }
      ],
      "name": "rejeitarProposta",
      "outputs": [],
      "payable": false,
      "stateMutability": "nonpayable",
      "type": "function"
    },
    {
      "constant": false,
      "inputs": [
        {
          "internalType": "uint256",
          "name": "id_proposta",
          "type": "uint256"
        }
      ],
      "name": "aprovarProposta",
      "outputs": [],
      "payable": false,
      "stateMutability": "nonpayable",
      "type": "function"
    }
  ],
  "bytecode": "0x60806040523480156200001157600080fd5b5060405162002abd38038062002abd833981810160405260408110156200003757600080fd5b81019080805160405193929190846401000000008211156200005857600080fd5b838201915060208201858111156200006f57600080fd5b82518660018202830111640100000000821117156200008d57600080fd5b8083526020830192505050908051906020019080838360005b83811015620000c3578082015181840152602081019050620000a6565b50505050905090810190601f168015620000f15780820380516001836020036101000a031916815260200191505b50604052602001805160405193929190846401000000008211156200011557600080fd5b838201915060208201858111156200012c57600080fd5b82518660018202830111640100000000821117156200014a57600080fd5b8083526020830192505050908051906020019080838360005b838110156200018057808201518184015260208101905062000163565b50505050905090810190601f168015620001ae5780820380516001836020036101000a031916815260200191505b506040525050508160019080519060200190620001cd929190620001f7565b508060009080519060200190620001e6929190620001f7565b50600a6002819055505050620002a6565b828054600181600116156101000203166002900490600052602060002090601f016020900481019282601f106200023a57805160ff19168380011785556200026b565b828001600101855582156200026b579182015b828111156200026a5782518255916020019190600101906200024d565b5b5090506200027a91906200027e565b5090565b620002a391905b808211156200029f57600081600090555060010162000285565b5090565b90565b61280780620002b66000396000f3fe608060405234801561001057600080fd5b50600436106101375760003560e01c80637fcc00b8116100b85780639ee4bacd1161007c5780639ee4bacd1461117a578063b1970ce614611198578063ded39a5d1461121b578063e1a01e6714611411578063f60dac9c14611494578063f99f3209146114de57610137565b80637fcc00b814610f5d578063805f4ea61461101857806386e1149514611046578063931852cd146110c95780639ea99825146110f757610137565b806322af738b116100ff57806322af738b146107875780636ca1f93314610a1b5780636d4c5ed314610a495780636f4777be14610a675780637306953f14610cc957610137565b8063066d8b121461013c578063160c5063146101bf578063162f17a9146102425780631b06fd01146104385780631c2b06a1146106cc575b600080fd5b610144611561565b6040518080602001828103825283818151815260200191508051906020019080838360005b83811015610184578082015181840152602081019050610169565b50505050905090810190601f1680156101b15780820380516001836020036101000a031916815260200191505b509250505060405180910390f35b6101c76115ff565b6040518080602001828103825283818151815260200191508051906020019080838360005b838110156102075780820151818401526020810190506101ec565b50505050905090810190601f1680156102345780820380516001836020036101000a031916815260200191505b509250505060405180910390f35b61026e6004803603602081101561025857600080fd5b810190808035906020019092919050505061169d565b60405180806020018060200180602001806020018615151515815260200185810385528a818151815260200191508051906020019080838360005b838110156102c45780820151818401526020810190506102a9565b50505050905090810190601f1680156102f15780820380516001836020036101000a031916815260200191505b50858103845289818151815260200191508051906020019080838360005b8381101561032a57808201518184015260208101905061030f565b50505050905090810190601f1680156103575780820380516001836020036101000a031916815260200191505b50858103835288818151815260200191508051906020019080838360005b83811015610390578082015181840152602081019050610375565b50505050905090810190601f1680156103bd5780820380516001836020036101000a031916815260200191505b50858103825287818151815260200191508051906020019080838360005b838110156103f65780820151818401526020810190506103db565b50505050905090810190601f1680156104235780820380516001836020036101000a031916815260200191505b50995050505050505050505060405180910390f35b6106b66004803603608081101561044e57600080fd5b810190808035906020019064010000000081111561046b57600080fd5b82018360208201111561047d57600080fd5b8035906020019184600183028401116401000000008311171561049f57600080fd5b91908080601f016020809104026020016040519081016040528093929190818152602001838380828437600081840152601f19601f8201169050808301925050505050505091929192908035906020019064010000000081111561050257600080fd5b82018360208201111561051457600080fd5b8035906020019184600183028401116401000000008311171561053657600080fd5b91908080601f016020809104026020016040519081016040528093929190818152602001838380828437600081840152601f19601f8201169050808301925050505050505091929192908035906020019064010000000081111561059957600080fd5b8201836020820111156105ab57600080fd5b803590602001918460018302840111640100000000831117156105cd57600080fd5b91908080601f016020809104026020016040519081016040528093929190818152602001838380828437600081840152601f19601f8201169050808301925050505050505091929192908035906020019064010000000081111561063057600080fd5b82018360208201111561064257600080fd5b8035906020019184600183028401116401000000008311171561066457600080fd5b91908080601f016020809104026020016040519081016040528093929190818152602001838380828437600081840152601f19601f82011690508083019250505050505050919291929050505061194d565b6040518082815260200191505060405180910390f35b610785600480360360208110156106e257600080fd5b81019080803590602001906401000000008111156106ff57600080fd5b82018360208201111561071157600080fd5b8035906020019184600183028401116401000000008311171561073357600080fd5b91908080601f016020809104026020016040519081016040528093929190818152602001838380828437600081840152601f19601f820116905080830192505050505050509192919290505050611a4e565b005b610a056004803603608081101561079d57600080fd5b81019080803590602001906401000000008111156107ba57600080fd5b8201836020820111156107cc57600080fd5b803590602001918460018302840111640100000000831117156107ee57600080fd5b91908080601f016020809104026020016040519081016040528093929190818152602001838380828437600081840152601f19601f8201169050808301925050505050505091929192908035906020019064010000000081111561085157600080fd5b82018360208201111561086357600080fd5b8035906020019184600183028401116401000000008311171561088557600080fd5b91908080601f016020809104026020016040519081016040528093929190818152602001838380828437600081840152601f19601f820116905080830192505050505050509192919290803590602001906401000000008111156108e857600080fd5b8201836020820111156108fa57600080fd5b8035906020019184600183028401116401000000008311171561091c57600080fd5b91908080601f016020809104026020016040519081016040528093929190818152602001838380828437600081840152601f19601f8201169050808301925050505050505091929192908035906020019064010000000081111561097f57600080fd5b82018360208201111561099157600080fd5b803590602001918460018302840111640100000000831117156109b357600080fd5b91908080601f016020809104026020016040519081016040528093929190818152602001838380828437600081840152601f19601f820116905080830192505050505050509192919290505050611a68565b6040518082815260200191505060405180910390f35b610a4760048036036020811015610a3157600080fd5b8101908080359060200190929190505050611bc1565b005b610a51611bcb565b6040518082815260200191505060405180910390f35b610a9360048036036020811015610a7d57600080fd5b8101908080359060200190929190505050611bd5565b6040518080602001806020018060200180602001806020018715151515815260200186810386528c818151815260200191508051906020019080838360005b83811015610aed578082015181840152602081019050610ad2565b50505050905090810190601f168015610b1a5780820380516001836020036101000a031916815260200191505b5086810385528b818151815260200191508051906020019080838360005b83811015610b53578082015181840152602081019050610b38565b50505050905090810190601f168015610b805780820380516001836020036101000a031916815260200191505b5086810384528a818151815260200191508051906020019080838360005b83811015610bb9578082015181840152602081019050610b9e565b50505050905090810190601f168015610be65780820380516001836020036101000a031916815260200191505b50868103835289818151815260200191508051906020019080838360005b83811015610c1f578082015181840152602081019050610c04565b50505050905090810190601f168015610c4c5780820380516001836020036101000a031916815260200191505b50868103825288818151815260200191508051906020019080838360005b83811015610c85578082015181840152602081019050610c6a565b50505050905090810190601f168015610cb25780820380516001836020036101000a031916815260200191505b509b50505050505050505050505060405180910390f35b610f4760048036036080811015610cdf57600080fd5b8101908080359060200190640100000000811115610cfc57600080fd5b820183602082011115610d0e57600080fd5b80359060200191846001830284011164010000000083111715610d3057600080fd5b91908080601f016020809104026020016040519081016040528093929190818152602001838380828437600081840152601f19601f82011690508083019250505050505050919291929080359060200190640100000000811115610d9357600080fd5b820183602082011115610da557600080fd5b80359060200191846001830284011164010000000083111715610dc757600080fd5b91908080601f016020809104026020016040519081016040528093929190818152602001838380828437600081840152601f19601f82011690508083019250505050505050919291929080359060200190640100000000811115610e2a57600080fd5b820183602082011115610e3c57600080fd5b80359060200191846001830284011164010000000083111715610e5e57600080fd5b91908080601f016020809104026020016040519081016040528093929190818152602001838380828437600081840152601f19601f82011690508083019250505050505050919291929080359060200190640100000000811115610ec157600080fd5b820183602082011115610ed357600080fd5b80359060200191846001830284011164010000000083111715610ef557600080fd5b91908080601f016020809104026020016040519081016040528093929190818152602001838380828437600081840152601f19601f820116905080830192505050505050509192919290505050611f23565b6040518082815260200191505060405180910390f35b61101660048036036020811015610f7357600080fd5b8101908080359060200190640100000000811115610f9057600080fd5b820183602082011115610fa257600080fd5b80359060200191846001830284011164010000000083111715610fc457600080fd5b91908080601f016020809104026020016040519081016040528093929190818152602001838380828437600081840152601f19601f820116905080830192505050505050509192919290505050612024565b005b6110446004803603602081101561102e57600080fd5b810190808035906020019092919050505061203e565b005b61104e6120a9565b6040518080602001828103825283818151815260200191508051906020019080838360005b8381101561108e578082015181840152602081019050611073565b50505050905090810190601f1680156110bb5780820380516001836020036101000a031916815260200191505b509250505060405180910390f35b6110f5600480360360208110156110df57600080fd5b810190808035906020019092919050505061214b565b005b6110ff6121b6565b6040518080602001828103825283818151815260200191508051906020019080838360005b8381101561113f578082015181840152602081019050611124565b50505050905090810190601f16801561116c5780820380516001836020036101000a031916815260200191505b509250505060405180910390f35b6111826121f3565b6040518082815260200191505060405180910390f35b6111a06121f9565b6040518080602001828103825283818151815260200191508051906020019080838360005b838110156111e05780820151818401526020810190506111c5565b50505050905090810190601f16801561120d5780820380516001836020036101000a031916815260200191505b509250505060405180910390f35b6112476004803603602081101561123157600080fd5b810190808035906020019092919050505061229b565b60405180806020018060200180602001806020018615151515815260200185810385528a818151815260200191508051906020019080838360005b8381101561129d578082015181840152602081019050611282565b50505050905090810190601f1680156112ca5780820380516001836020036101000a031916815260200191505b50858103845289818151815260200191508051906020019080838360005b838110156113035780820151818401526020810190506112e8565b50505050905090810190601f1680156113305780820380516001836020036101000a031916815260200191505b50858103835288818151815260200191508051906020019080838360005b8381101561136957808201518184015260208101905061134e565b50505050905090810190601f1680156113965780820380516001836020036101000a031916815260200191505b50858103825287818151815260200191508051906020019080838360005b838110156113cf5780820151818401526020810190506113b4565b50505050905090810190601f1680156113fc5780820380516001836020036101000a031916815260200191505b50995050505050505050505060405180910390f35b61141961254b565b6040518080602001828103825283818151815260200191508051906020019080838360005b8381101561145957808201518184015260208101905061143e565b50505050905090810190601f1680156114865780820380516001836020036101000a031916815260200191505b509250505060405180910390f35b61149c6125e9565b604051808273ffffffffffffffffffffffffffffffffffffffff1673ffffffffffffffffffffffffffffffffffffffff16815260200191505060405180910390f35b6114e661260f565b6040518080602001828103825283818151815260200191508051906020019080838360005b8381101561152657808201518184015260208101905061150b565b50505050905090810190601f1680156115535780820380516001836020036101000a031916815260200191505b509250505060405180910390f35b60008054600181600116156101000203166002900480601f0160208091040260200160405190810160405280929190818152602001828054600181600116156101000203166002900480156115f75780601f106115cc576101008083540402835291602001916115f7565b820191906000526020600020905b8154815290600101906020018083116115da57829003601f168201915b505050505081565b60018054600181600116156101000203166002900480601f0160208091040260200160405190810160405280929190818152602001828054600181600116156101000203166002900480156116955780601f1061166a57610100808354040283529160200191611695565b820191906000526020600020905b81548152906001019060200180831161167857829003601f168201915b505050505081565b600781815481106116aa57fe5b9060005260206000209060050201600091509050806000018054600181600116156101000203166002900480601f0160208091040260200160405190810160405280929190818152602001828054600181600116156101000203166002900480156117565780601f1061172b57610100808354040283529160200191611756565b820191906000526020600020905b81548152906001019060200180831161173957829003601f168201915b505050505090806001018054600181600116156101000203166002900480601f0160208091040260200160405190810160405280929190818152602001828054600181600116156101000203166002900480156117f45780601f106117c9576101008083540402835291602001916117f4565b820191906000526020600020905b8154815290600101906020018083116117d757829003601f168201915b505050505090806002018054600181600116156101000203166002900480601f0160208091040260200160405190810160405280929190818152602001828054600181600116156101000203166002900480156118925780601f1061186757610100808354040283529160200191611892565b820191906000526020600020905b81548152906001019060200180831161187557829003601f168201915b505050505090806003018054600181600116156101000203166002900480601f0160208091040260200160405190810160405280929190818152602001828054600181600116156101000203166002900480156119305780601f1061190557610100808354040283529160200191611930565b820191906000526020600020905b81548152906001019060200180831161191357829003601f168201915b5050505050908060040160009054906101000a900460ff16905085565b600080600160076040518060a00160405280898152602001888152602001878152602001868152602001600115158152509080600181540180825580915050906001820390600052602060002090600502016000909192909190915060008201518160000190805190602001906119c59291906126ad565b5060208201518160010190805190602001906119e29291906126ad565b5060408201518160020190805190602001906119ff9291906126ad565b506060820151816003019080519060200190611a1c9291906126ad565b5060808201518160040160006101000a81548160ff021916908315150217905550505003905080915050949350505050565b8060019080519060200190611a6492919061272d565b5050565b600080600160086040518060c001604052808981526020018881526020018781526020018681526020016040518060400160405280600181526020017f5000000000000000000000000000000000000000000000000000000000000000815250815260200160011515815250908060018154018082558091505090600182039060005260206000209060060201600090919290919091506000820151816000019080519060200190611b1b9291906126ad565b506020820151816001019080519060200190611b389291906126ad565b506040820151816002019080519060200190611b559291906126ad565b506060820151816003019080519060200190611b729291906126ad565b506080820151816004019080519060200190611b8f9291906126ad565b5060a08201518160050160006101000a81548160ff021916908315150217905550505003905080915050949350505050565b8060028190555050565b6000600254905090565b60088181548110611be257fe5b9060005260206000209060060201600091509050806000018054600181600116156101000203166002900480601f016020809104026020016040519081016040528092919081815260200182805460018160011615610100020316600290048015611c8e5780601f10611c6357610100808354040283529160200191611c8e565b820191906000526020600020905b815481529060010190602001808311611c7157829003601f168201915b505050505090806001018054600181600116156101000203166002900480601f016020809104026020016040519081016040528092919081815260200182805460018160011615610100020316600290048015611d2c5780601f10611d0157610100808354040283529160200191611d2c565b820191906000526020600020905b815481529060010190602001808311611d0f57829003601f168201915b505050505090806002018054600181600116156101000203166002900480601f016020809104026020016040519081016040528092919081815260200182805460018160011615610100020316600290048015611dca5780601f10611d9f57610100808354040283529160200191611dca565b820191906000526020600020905b815481529060010190602001808311611dad57829003601f168201915b505050505090806003018054600181600116156101000203166002900480601f016020809104026020016040519081016040528092919081815260200182805460018160011615610100020316600290048015611e685780601f10611e3d57610100808354040283529160200191611e68565b820191906000526020600020905b815481529060010190602001808311611e4b57829003601f168201915b505050505090806004018054600181600116156101000203166002900480601f016020809104026020016040519081016040528092919081815260200182805460018160011615610100020316600290048015611f065780601f10611edb57610100808354040283529160200191611f06565b820191906000526020600020905b815481529060010190602001808311611ee957829003601f168201915b5050505050908060050160009054906101000a900460ff16905086565b600080600160066040518060a0016040528089815260200188815260200187815260200186815260200160011515815250908060018154018082558091505090600182039060005260206000209060050201600090919290919091506000820151816000019080519060200190611f9b9291906126ad565b506020820151816001019080519060200190611fb89291906126ad565b506040820151816002019080519060200190611fd59291906126ad565b506060820151816003019080519060200190611ff29291906126ad565b5060808201518160040160006101000a81548160ff021916908315150217905550505003905080915050949350505050565b806000908051906020019061203a92919061272d565b5050565b6040518060400160405280600181526020017f52000000000000000000000000000000000000000000000000000000000000008152506008828154811061208157fe5b906000526020600020906006020160040190805190602001906120a592919061272d565b5050565b606060018054600181600116156101000203166002900480601f0160208091040260200160405190810160405280929190818152602001828054600181600116156101000203166002900480156121415780601f1061211657610100808354040283529160200191612141565b820191906000526020600020905b81548152906001019060200180831161212457829003601f168201915b5050505050905090565b6040518060400160405280600181526020017f41000000000000000000000000000000000000000000000000000000000000008152506008828154811061218e57fe5b906000526020600020906006020160040190805190602001906121b292919061272d565b5050565b60606040518060400160405280600e81526020017f4d657520746578746f206669786f000000000000000000000000000000000000815250905090565b60025481565b606060008054600181600116156101000203166002900480601f0160208091040260200160405190810160405280929190818152602001828054600181600116156101000203166002900480156122915780601f1061226657610100808354040283529160200191612291565b820191906000526020600020905b81548152906001019060200180831161227457829003601f168201915b5050505050905090565b600681815481106122a857fe5b9060005260206000209060050201600091509050806000018054600181600116156101000203166002900480601f0160208091040260200160405190810160405280929190818152602001828054600181600116156101000203166002900480156123545780601f1061232957610100808354040283529160200191612354565b820191906000526020600020905b81548152906001019060200180831161233757829003601f168201915b505050505090806001018054600181600116156101000203166002900480601f0160208091040260200160405190810160405280929190818152602001828054600181600116156101000203166002900480156123f25780601f106123c7576101008083540402835291602001916123f2565b820191906000526020600020905b8154815290600101906020018083116123d557829003601f168201915b505050505090806002018054600181600116156101000203166002900480601f0160208091040260200160405190810160405280929190818152602001828054600181600116156101000203166002900480156124905780601f1061246557610100808354040283529160200191612490565b820191906000526020600020905b81548152906001019060200180831161247357829003601f168201915b505050505090806003018054600181600116156101000203166002900480601f01602080910402602001604051908101604052809291908181526020018280546001816001161561010002031660029004801561252e5780601f106125035761010080835404028352916020019161252e565b820191906000526020600020905b81548152906001019060200180831161251157829003601f168201915b5050505050908060040160009054906101000a900460ff16905085565b60038054600181600116156101000203166002900480601f0160208091040260200160405190810160405280929190818152602001828054600181600116156101000203166002900480156125e15780601f106125b6576101008083540402835291602001916125e1565b820191906000526020600020905b8154815290600101906020018083116125c457829003601f168201915b505050505081565b600560009054906101000a900473ffffffffffffffffffffffffffffffffffffffff1681565b60048054600181600116156101000203166002900480601f0160208091040260200160405190810160405280929190818152602001828054600181600116156101000203166002900480156126a55780601f1061267a576101008083540402835291602001916126a5565b820191906000526020600020905b81548152906001019060200180831161268857829003601f168201915b505050505081565b828054600181600116156101000203166002900490600052602060002090601f016020900481019282601f106126ee57805160ff191683800117855561271c565b8280016001018555821561271c579182015b8281111561271b578251825591602001919060010190612700565b5b50905061272991906127ad565b5090565b828054600181600116156101000203166002900490600052602060002090601f016020900481019282601f1061276e57805160ff191683800117855561279c565b8280016001018555821561279c579182015b8281111561279b578251825591602001919060010190612780565b5b5090506127a991906127ad565b5090565b6127cf91905b808211156127cb5760008160009055506001016127b3565b5090565b9056fea265627a7a72315820adab5a78dee566377e1050e319802e146475fb62d0d845767ef268a1a6a92b8f64736f6c63430005100032",
  "source": "pragma solidity ^0.5.10;\r\n\r\ncontract Pecem {\r\n    string public nome_propriedade;\r\n    string public mensagem;\r\n    uint public teste;\r\n    string public contrato;\r\n    string public proposta; \r\n    address public dono_contrato;\r\n\r\n    struct Registro {\r\n        string comprador;\r\n        string vendedor;\r\n        string data;\r\n        string json_texto_registo;\r\n        bool ativo;\r\n    }\r\n\r\n    struct NotaFiscal {\r\n        string fornecedor;\r\n        string item;\r\n        string data;\r\n        string json_texto_nota;\r\n        bool ativo;\r\n    }\r\n\r\n    struct Proposta {\r\n        string comprador;\r\n        string vendedor;\r\n        string data;\r\n        string json_texto_proposta;\r\n        string estado;\r\n        bool ativo;\r\n    }\r\n\r\n    Registro[] public registros;\r\n    NotaFiscal[] public notas;\r\n    Proposta[] public propostas;\r\n\r\n    constructor(string memory mensagemInicial, string memory nomeInicial) public {\r\n        mensagem = mensagemInicial;\r\n        nome_propriedade = nomeInicial;\r\n        teste = 10;\r\n    }\r\n\r\n    function atualizaMensagem(string memory novaMensagem) public {\r\n        mensagem = novaMensagem;\r\n    }\r\n\r\n    function alteraNomePropriedade(string memory novoNome) public {\r\n        nome_propriedade = novoNome;\r\n    }\r\n\r\n    function getMensagem() public view returns(string memory ret) {\r\n        //const bytes32 varConv = mensagem;\r\n        return mensagem;\r\n    }\r\n\r\n    function getNomePropriedade() public view returns(string memory ret) {\r\n        //const bytes32 varConv = nome_propriedade;\r\n        return nome_propriedade;\r\n    }\r\n\r\n    function getTeste() public view returns(uint) {\r\n        //const bytes32 varConv = mensagem;\r\n        return teste;\r\n    }\r\n\r\n    function setTest(uint valor) public {\r\n        //const bytes32 varConv = nome_propriedade;\r\n        teste = valor;\r\n    }\r\n\r\n    function retornoFixo() public pure returns (string memory status){\r\n        return \"Meu texto fixo\";\r\n    }\r\n\r\n    function insereNota(string memory _fornecedor, string memory _item, string memory _data, string memory _texto) public returns (uint){\r\n        uint id_ret = notas.push(NotaFiscal(_fornecedor, _item,_data,_texto, true)) - 1;\r\n        return id_ret;\r\n    }\r\n\r\n    function insereRegistro(string memory _comprador, string memory _vendedor, string memory _data, string memory _texto) public returns (uint){\r\n        uint id_ret = registros.push(Registro(_comprador, _vendedor, _data, _texto, true)) - 1;\r\n        return id_ret;\r\n    }\r\n\r\n    function insereProposta(string memory _comprador, string memory _vendedor, string memory _data, string memory _texto) public returns (uint){\r\n        uint id_ret = propostas.push(Proposta(_comprador, _vendedor, _data, _texto, 'P', true)) - 1;\r\n        return id_ret;\r\n    }\r\n\r\n    function rejeitarProposta(uint id_proposta) public{\r\n        propostas[id_proposta].estado = 'R';\r\n    }\r\n\r\n    function aprovarProposta(uint id_proposta) public{\r\n        propostas[id_proposta].estado = 'A';\r\n        //inativar propostas no aprovadas e rejeitar... \r\n    }\r\n\r\n    function _inativarProposta(uint id_proposta) private{\r\n        propostas[id_proposta].ativo = false;\r\n    }\r\n\r\n    function _inativarNota(uint id_nota) private{\r\n        notas[id_nota].ativo = false;\r\n    }\r\n}",
  "sourcePath": "C:/Bitcoin_Ethereum/RSK/poc_rsk/rsk_blockchain_poc/contracts/Pecem.sol",
  "compiler": {
    "name": "solc",
    "version": "0.5.16+commit.9c3226ce.Emscripten.clang"
  },
  "schemaVersion": "3.2.3",
  "updatedAt": "2020-10-14T19:36:02.073Z",
  "networkType": "ethereum",
  "devdoc": {
    "methods": {}
  },
  "userdoc": {
    "methods": {}
  }
}